{
  "_format": "hh-sol-artifact-1",
  "contractName": "StakingContract",
  "sourceName": "contracts/StakingContract.sol",
  "abi": [
    {
      "inputs": [
        {
          "internalType": "uint256",
          "name": "_stakingPeriod",
          "type": "uint256"
        },
        {
          "internalType": "uint256",
          "name": "_rewardRate",
          "type": "uint256"
        }
      ],
      "stateMutability": "nonpayable",
      "type": "constructor"
    },
    {
      "anonymous": false,
      "inputs": [
        {
          "indexed": true,
          "internalType": "address",
          "name": "user",
          "type": "address"
        },
        {
          "indexed": false,
          "internalType": "uint256",
          "name": "amount",
          "type": "uint256"
        }
      ],
      "name": "RewardClaimed",
      "type": "event"
    },
    {
      "anonymous": false,
      "inputs": [
        {
          "indexed": true,
          "internalType": "address",
          "name": "user",
          "type": "address"
        },
        {
          "indexed": false,
          "internalType": "uint256",
          "name": "amount",
          "type": "uint256"
        }
      ],
      "name": "RewardDistributed",
      "type": "event"
    },
    {
      "anonymous": false,
      "inputs": [
        {
          "indexed": true,
          "internalType": "address",
          "name": "user",
          "type": "address"
        },
        {
          "indexed": false,
          "internalType": "uint256",
          "name": "amount",
          "type": "uint256"
        }
      ],
      "name": "Staked",
      "type": "event"
    },
    {
      "anonymous": false,
      "inputs": [
        {
          "indexed": true,
          "internalType": "address",
          "name": "user",
          "type": "address"
        },
        {
          "indexed": false,
          "internalType": "uint256",
          "name": "amount",
          "type": "uint256"
        }
      ],
      "name": "Withdrawn",
      "type": "event"
    },
    {
      "inputs": [
        {
          "internalType": "address",
          "name": "user",
          "type": "address"
        }
      ],
      "name": "calculateRewards",
      "outputs": [
        {
          "internalType": "uint256",
          "name": "",
          "type": "uint256"
        }
      ],
      "stateMutability": "view",
      "type": "function"
    },
    {
      "inputs": [],
      "name": "claimRewards",
      "outputs": [],
      "stateMutability": "nonpayable",
      "type": "function"
    },
    {
      "inputs": [],
      "name": "distributeRewards",
      "outputs": [],
      "stateMutability": "nonpayable",
      "type": "function"
    },
    {
      "inputs": [
        {
          "internalType": "address",
          "name": "user",
          "type": "address"
        }
      ],
      "name": "getRewardsBalance",
      "outputs": [
        {
          "internalType": "uint256",
          "name": "",
          "type": "uint256"
        }
      ],
      "stateMutability": "view",
      "type": "function"
    },
    {
      "inputs": [
        {
          "internalType": "address",
          "name": "user",
          "type": "address"
        }
      ],
      "name": "getStakedBalance",
      "outputs": [
        {
          "internalType": "uint256",
          "name": "",
          "type": "uint256"
        }
      ],
      "stateMutability": "view",
      "type": "function"
    },
    {
      "inputs": [],
      "name": "owner",
      "outputs": [
        {
          "internalType": "address",
          "name": "",
          "type": "address"
        }
      ],
      "stateMutability": "view",
      "type": "function"
    },
    {
      "inputs": [],
      "name": "rewardRate",
      "outputs": [
        {
          "internalType": "uint256",
          "name": "",
          "type": "uint256"
        }
      ],
      "stateMutability": "view",
      "type": "function"
    },
    {
      "inputs": [
        {
          "internalType": "uint256",
          "name": "_amount",
          "type": "uint256"
        }
      ],
      "name": "stake",
      "outputs": [],
      "stateMutability": "nonpayable",
      "type": "function"
    },
    {
      "inputs": [
        {
          "internalType": "uint256",
          "name": "",
          "type": "uint256"
        }
      ],
      "name": "stakers",
      "outputs": [
        {
          "internalType": "address",
          "name": "",
          "type": "address"
        }
      ],
      "stateMutability": "view",
      "type": "function"
    },
    {
      "inputs": [],
      "name": "stakingPeriod",
      "outputs": [
        {
          "internalType": "uint256",
          "name": "",
          "type": "uint256"
        }
      ],
      "stateMutability": "view",
      "type": "function"
    },
    {
      "inputs": [
        {
          "internalType": "address",
          "name": "",
          "type": "address"
        }
      ],
      "name": "stakingStatus",
      "outputs": [
        {
          "internalType": "bool",
          "name": "",
          "type": "bool"
        }
      ],
      "stateMutability": "view",
      "type": "function"
    },
    {
      "inputs": [],
      "name": "totalRewards",
      "outputs": [
        {
          "internalType": "uint256",
          "name": "",
          "type": "uint256"
        }
      ],
      "stateMutability": "view",
      "type": "function"
    },
    {
      "inputs": [],
      "name": "totalStaked",
      "outputs": [
        {
          "internalType": "uint256",
          "name": "",
          "type": "uint256"
        }
      ],
      "stateMutability": "view",
      "type": "function"
    },
    {
      "inputs": [
        {
          "internalType": "address",
          "name": "newOwner",
          "type": "address"
        }
      ],
      "name": "transferOwnership",
      "outputs": [],
      "stateMutability": "nonpayable",
      "type": "function"
    },
    {
      "inputs": [
        {
          "internalType": "address",
          "name": "",
          "type": "address"
        }
      ],
      "name": "userBalances",
      "outputs": [
        {
          "internalType": "uint256",
          "name": "",
          "type": "uint256"
        }
      ],
      "stateMutability": "view",
      "type": "function"
    },
    {
      "inputs": [
        {
          "internalType": "address",
          "name": "",
          "type": "address"
        }
      ],
      "name": "userRewards",
      "outputs": [
        {
          "internalType": "uint256",
          "name": "",
          "type": "uint256"
        }
      ],
      "stateMutability": "view",
      "type": "function"
    },
    {
      "inputs": [
        {
          "internalType": "address",
          "name": "",
          "type": "address"
        }
      ],
      "name": "userStakedTimestamp",
      "outputs": [
        {
          "internalType": "uint256",
          "name": "",
          "type": "uint256"
        }
      ],
      "stateMutability": "view",
      "type": "function"
    },
    {
      "inputs": [],
      "name": "withdraw",
      "outputs": [],
      "stateMutability": "nonpayable",
      "type": "function"
    }
  ],
  "bytecode": "0x60806040523480156200001157600080fd5b50604051620018aa380380620018aa8339818101604052810190620000379190620000a4565b336000806101000a81548173ffffffffffffffffffffffffffffffffffffffff021916908373ffffffffffffffffffffffffffffffffffffffff1602179055508160018190555080600281905550505062000109565b6000815190506200009e81620000ef565b92915050565b60008060408385031215620000b857600080fd5b6000620000c8858286016200008d565b9250506020620000db858286016200008d565b9150509250929050565b6000819050919050565b620000fa81620000e5565b81146200010657600080fd5b50565b61179180620001196000396000f3fe608060405234801561001057600080fd5b50600436106101165760003560e01c80637b0a47ee116100a2578063a694fc3a11610071578063a694fc3a146102d1578063c03d5b47146102ed578063ef758c671461030b578063f2fde38b1461033b578063fd5e6dd11461035757610116565b80637b0a47ee14610247578063817b1cd2146102655780638a67f4bf146102835780638da5cb5b146102b357610116565b80633a02a42d116100e95780633a02a42d146101a35780633ccfd60b146101d35780634837eb1f146101dd57806364ab86751461020d5780636f4a2cd01461023d57610116565b80630660f1e81461011b5780630e15561a1461014b57806326224c6414610169578063372500ab14610199575b600080fd5b610135600480360381019061013091906110fc565b610387565b60405161014291906114fd565b60405180910390f35b61015361039f565b60405161016091906114fd565b60405180910390f35b610183600480360381019061017e91906110fc565b6103a5565b60405161019091906114fd565b60405180910390f35b6101a16103bd565b005b6101bd60048036038101906101b891906110fc565b61056b565b6040516101ca91906114fd565b60405180910390f35b6101db6105b4565b005b6101f760048036038101906101f291906110fc565b610861565b60405161020491906113e2565b60405180910390f35b610227600480360381019061022291906110fc565b610881565b60405161023491906114fd565b60405180910390f35b6102456109b9565b005b61024f610ca1565b60405161025c91906114fd565b60405180910390f35b61026d610ca7565b60405161027a91906114fd565b60405180910390f35b61029d600480360381019061029891906110fc565b610cad565b6040516102aa91906114fd565b60405180910390f35b6102bb610cf6565b6040516102c891906113c7565b60405180910390f35b6102eb60048036038101906102e69190611125565b610d1a565b005b6102f5610ef6565b60405161030291906114fd565b60405180910390f35b610325600480360381019061032091906110fc565b610efc565b60405161033291906114fd565b60405180910390f35b610355600480360381019061035091906110fc565b610f14565b005b610371600480360381019061036c9190611125565b611055565b60405161037e91906113c7565b60405180910390f35b60066020528060005260406000206000915090505481565b60045481565b60056020528060005260406000206000915090505481565b6000600660003373ffffffffffffffffffffffffffffffffffffffff1673ffffffffffffffffffffffffffffffffffffffff168152602001908152602001600020541161043f576040517f08c379a00000000000000000000000000000000000000000000000000000000081526004016104369061147d565b60405180910390fd5b600660003373ffffffffffffffffffffffffffffffffffffffff1673ffffffffffffffffffffffffffffffffffffffff1681526020019081526020016000205460046000828254610490919061160a565b925050819055506000600660003373ffffffffffffffffffffffffffffffffffffffff1673ffffffffffffffffffffffffffffffffffffffff168152602001908152602001600020819055503373ffffffffffffffffffffffffffffffffffffffff167f106f923f993c2149d49b4255ff723acafa1f2d94393f561d3eda32ae348f7241600660003373ffffffffffffffffffffffffffffffffffffffff1673ffffffffffffffffffffffffffffffffffffffff1681526020019081526020016000205460405161056191906114fd565b60405180910390a2565b6000600560008373ffffffffffffffffffffffffffffffffffffffff1673ffffffffffffffffffffffffffffffffffffffff168152602001908152602001600020549050919050565b6000600560003373ffffffffffffffffffffffffffffffffffffffff1673ffffffffffffffffffffffffffffffffffffffff1681526020019081526020016000205411610636576040517f08c379a000000000000000000000000000000000000000000000000000000000815260040161062d9061143d565b60405180910390fd5b6000600560003373ffffffffffffffffffffffffffffffffffffffff1673ffffffffffffffffffffffffffffffffffffffff1681526020019081526020016000205490506000600760003373ffffffffffffffffffffffffffffffffffffffff1673ffffffffffffffffffffffffffffffffffffffff16815260200190815260200160002054426106c7919061160a565b9050600060015482600254856106dd91906115b0565b6106e791906115b0565b6106f1919061157f565b90506000600560003373ffffffffffffffffffffffffffffffffffffffff1673ffffffffffffffffffffffffffffffffffffffff1681526020019081526020016000208190555080600660003373ffffffffffffffffffffffffffffffffffffffff1673ffffffffffffffffffffffffffffffffffffffff16815260200190815260200160002060008282546107879190611529565b9250508190555080600460008282546107a09190611529565b9250508190555082600360008282546107b9919061160a565b925050819055503373ffffffffffffffffffffffffffffffffffffffff167f7084f5476618d8e60b11ef0d7d3f06914655adb8793e28ff7f018d4c76d505d58460405161080691906114fd565b60405180910390a23373ffffffffffffffffffffffffffffffffffffffff167f106f923f993c2149d49b4255ff723acafa1f2d94393f561d3eda32ae348f72418260405161085491906114fd565b60405180910390a2505050565b60086020528060005260406000206000915054906101000a900460ff1681565b600080600560008473ffffffffffffffffffffffffffffffffffffffff1673ffffffffffffffffffffffffffffffffffffffff1681526020019081526020016000205411610904576040517f08c379a00000000000000000000000000000000000000000000000000000000081526004016108fb9061145d565b60405180910390fd5b6000600560008473ffffffffffffffffffffffffffffffffffffffff1673ffffffffffffffffffffffffffffffffffffffff1681526020019081526020016000205490506000600760008573ffffffffffffffffffffffffffffffffffffffff1673ffffffffffffffffffffffffffffffffffffffff1681526020019081526020016000205442610995919061160a565b905060015481836109a691906115b0565b6109b0919061157f565b92505050919050565b60008054906101000a900473ffffffffffffffffffffffffffffffffffffffff1673ffffffffffffffffffffffffffffffffffffffff163373ffffffffffffffffffffffffffffffffffffffff1614610a47576040517f08c379a0000000000000000000000000000000000000000000000000000000008152600401610a3e9061141d565b60405180910390fd5b600154421015610a8c576040517f08c379a0000000000000000000000000000000000000000000000000000000008152600401610a83906114bd565b60405180910390fd5b60005b600980549050811015610c8957600060098281548110610ad8577f4e487b7100000000000000000000000000000000000000000000000000000000600052603260045260246000fd5b9060005260206000200160009054906101000a900473ffffffffffffffffffffffffffffffffffffffff1690506000600560008373ffffffffffffffffffffffffffffffffffffffff1673ffffffffffffffffffffffffffffffffffffffff1681526020019081526020016000205490506000600760008473ffffffffffffffffffffffffffffffffffffffff1673ffffffffffffffffffffffffffffffffffffffff1681526020019081526020016000205442610b96919061160a565b905060006001548284610ba991906115b0565b610bb3919061157f565b905080600660008673ffffffffffffffffffffffffffffffffffffffff1673ffffffffffffffffffffffffffffffffffffffff1681526020019081526020016000206000828254610c049190611529565b925050819055508060046000828254610c1d9190611529565b925050819055508373ffffffffffffffffffffffffffffffffffffffff167fe34918ff1c7084970068b53fd71ad6d8b04e9f15d3886cbf006443e6cdc52ea682604051610c6a91906114fd565b60405180910390a2505050508080610c8190611686565b915050610a8f565b504260018190555060096000610c9f9190611094565b565b60025481565b60035481565b6000600660008373ffffffffffffffffffffffffffffffffffffffff1673ffffffffffffffffffffffffffffffffffffffff168152602001908152602001600020549050919050565b60008054906101000a900473ffffffffffffffffffffffffffffffffffffffff1681565b60008111610d5d576040517f08c379a0000000000000000000000000000000000000000000000000000000008152600401610d549061149d565b60405180910390fd5b600860003373ffffffffffffffffffffffffffffffffffffffff1673ffffffffffffffffffffffffffffffffffffffff16815260200190815260200160002060009054906101000a900460ff1615610dea576040517f08c379a0000000000000000000000000000000000000000000000000000000008152600401610de1906113fd565b60405180910390fd5b6001600860003373ffffffffffffffffffffffffffffffffffffffff1673ffffffffffffffffffffffffffffffffffffffff16815260200190815260200160002060006101000a81548160ff0219169083151502179055506009339080600181540180825580915050600190039060005260206000200160009091909190916101000a81548173ffffffffffffffffffffffffffffffffffffffff021916908373ffffffffffffffffffffffffffffffffffffffff1602179055503373ffffffffffffffffffffffffffffffffffffffff167f9e71bc8eea02a63969f509818f2dafb9254532904319f9dbda79b67bd34a5f3d82604051610eeb91906114fd565b60405180910390a250565b60015481565b60076020528060005260406000206000915090505481565b60008054906101000a900473ffffffffffffffffffffffffffffffffffffffff1673ffffffffffffffffffffffffffffffffffffffff163373ffffffffffffffffffffffffffffffffffffffff1614610fa2576040517f08c379a0000000000000000000000000000000000000000000000000000000008152600401610f999061141d565b60405180910390fd5b600073ffffffffffffffffffffffffffffffffffffffff168173ffffffffffffffffffffffffffffffffffffffff161415611012576040517f08c379a0000000000000000000000000000000000000000000000000000000008152600401611009906114dd565b60405180910390fd5b806000806101000a81548173ffffffffffffffffffffffffffffffffffffffff021916908373ffffffffffffffffffffffffffffffffffffffff16021790555050565b6009818154811061106557600080fd5b906000526020600020016000915054906101000a900473ffffffffffffffffffffffffffffffffffffffff1681565b50805460008255906000526020600020908101906110b291906110b5565b50565b5b808211156110ce5760008160009055506001016110b6565b5090565b6000813590506110e18161172d565b92915050565b6000813590506110f681611744565b92915050565b60006020828403121561110e57600080fd5b600061111c848285016110d2565b91505092915050565b60006020828403121561113757600080fd5b6000611145848285016110e7565b91505092915050565b6111578161163e565b82525050565b61116681611650565b82525050565b6000611179601883611518565b91507f557365722063616e206f6e6c79207374616b65206f6e636500000000000000006000830152602082019050919050565b60006111b9602183611518565b91507f4f6e6c79206f776e65722063616e2063616c6c20746869732066756e6374696f60008301527f6e000000000000000000000000000000000000000000000000000000000000006020830152604082019050919050565b600061121f601c83611518565b91507f4e6f207374616b656420616d6f756e7420746f207769746864726177000000006000830152602082019050919050565b600061125f601983611518565b91507f5573657220686173206e6f207374616b656420616d6f756e74000000000000006000830152602082019050919050565b600061129f601383611518565b91507f4e6f207265776172647320746f20636c61696d000000000000000000000000006000830152602082019050919050565b60006112df602483611518565b91507f5374616b656420616d6f756e74206d757374206265206772656174657220746860008301527f616e2030000000000000000000000000000000000000000000000000000000006020830152604082019050919050565b6000611345602083611518565b91507f5374616b696e6720706572696f6420686173206e6f7420656e646564207965746000830152602082019050919050565b6000611385601983611518565b91507f496e76616c6964206e6577206f776e65722061646472657373000000000000006000830152602082019050919050565b6113c18161167c565b82525050565b60006020820190506113dc600083018461114e565b92915050565b60006020820190506113f7600083018461115d565b92915050565b600060208201905081810360008301526114168161116c565b9050919050565b60006020820190508181036000830152611436816111ac565b9050919050565b6000602082019050818103600083015261145681611212565b9050919050565b6000602082019050818103600083015261147681611252565b9050919050565b6000602082019050818103600083015261149681611292565b9050919050565b600060208201905081810360008301526114b6816112d2565b9050919050565b600060208201905081810360008301526114d681611338565b9050919050565b600060208201905081810360008301526114f681611378565b9050919050565b600060208201905061151260008301846113b8565b92915050565b600082825260208201905092915050565b60006115348261167c565b915061153f8361167c565b9250827fffffffffffffffffffffffffffffffffffffffffffffffffffffffffffffffff03821115611574576115736116cf565b5b828201905092915050565b600061158a8261167c565b91506115958361167c565b9250826115a5576115a46116fe565b5b828204905092915050565b60006115bb8261167c565b91506115c68361167c565b9250817fffffffffffffffffffffffffffffffffffffffffffffffffffffffffffffffff04831182151516156115ff576115fe6116cf565b5b828202905092915050565b60006116158261167c565b91506116208361167c565b925082821015611633576116326116cf565b5b828203905092915050565b60006116498261165c565b9050919050565b60008115159050919050565b600073ffffffffffffffffffffffffffffffffffffffff82169050919050565b6000819050919050565b60006116918261167c565b91507fffffffffffffffffffffffffffffffffffffffffffffffffffffffffffffffff8214156116c4576116c36116cf565b5b600182019050919050565b7f4e487b7100000000000000000000000000000000000000000000000000000000600052601160045260246000fd5b7f4e487b7100000000000000000000000000000000000000000000000000000000600052601260045260246000fd5b6117368161163e565b811461174157600080fd5b50565b61174d8161167c565b811461175857600080fd5b5056fea2646970667358221220a58a8f7c382259e7a1f9f37b19869cecb0752908350a9bfcc3820af7e581e5a064736f6c63430008000033",
  "linkReferences": {},
  "deployedLinkReferences": {}
}